{
  "contractName": "Vesting",
  "abi": [
    {
      "inputs": [
        {
          "internalType": "contract IERC20",
          "name": "_token",
          "type": "address"
        }
      ],
      "stateMutability": "nonpayable",
      "type": "constructor"
    },
    {
      "anonymous": false,
      "inputs": [
        {
          "indexed": true,
          "internalType": "address",
          "name": "previousOwner",
          "type": "address"
        },
        {
          "indexed": true,
          "internalType": "address",
          "name": "newOwner",
          "type": "address"
        }
      ],
      "name": "OwnershipTransferred",
      "type": "event"
    },
    {
      "anonymous": false,
      "inputs": [
        {
          "indexed": false,
          "internalType": "address",
          "name": "_beneficiary",
          "type": "address"
        },
        {
          "indexed": false,
          "internalType": "enum Vesting.Roles",
          "name": "_role",
          "type": "uint8"
        }
      ],
      "name": "beneficiaryAdded",
      "type": "event"
    },
    {
      "anonymous": false,
      "inputs": [
        {
          "indexed": false,
          "internalType": "address",
          "name": "_beneficiary",
          "type": "address"
        },
        {
          "indexed": false,
          "internalType": "uint256",
          "name": "tokensWithdrawable",
          "type": "uint256"
        }
      ],
      "name": "tokensReleased",
      "type": "event"
    },
    {
      "anonymous": false,
      "inputs": [
        {
          "indexed": false,
          "internalType": "address",
          "name": "_beneficiary",
          "type": "address"
        },
        {
          "indexed": false,
          "internalType": "uint256",
          "name": "_tokens",
          "type": "uint256"
        }
      ],
      "name": "tokensWithdrawn",
      "type": "event"
    },
    {
      "inputs": [
        {
          "internalType": "address",
          "name": "",
          "type": "address"
        }
      ],
      "name": "beneficiaries",
      "outputs": [
        {
          "internalType": "address",
          "name": "beneficiary",
          "type": "address"
        },
        {
          "internalType": "enum Vesting.Roles",
          "name": "role",
          "type": "uint8"
        },
        {
          "internalType": "uint256",
          "name": "vestingStartTime",
          "type": "uint256"
        },
        {
          "internalType": "uint256",
          "name": "vestingcliffExpiryTime",
          "type": "uint256"
        },
        {
          "internalType": "uint256",
          "name": "vestingDurationExpiryTime",
          "type": "uint256"
        },
        {
          "internalType": "bool",
          "name": "isVestingRevoked",
          "type": "bool"
        },
        {
          "internalType": "uint256",
          "name": "fullyVestedAmount",
          "type": "uint256"
        },
        {
          "internalType": "uint256",
          "name": "currentVestedAmount",
          "type": "uint256"
        },
        {
          "internalType": "uint256",
          "name": "tokensReleasedTillNow",
          "type": "uint256"
        },
        {
          "internalType": "uint256",
          "name": "tokensWithdrawn",
          "type": "uint256"
        }
      ],
      "stateMutability": "view",
      "type": "function",
      "constant": true
    },
    {
      "inputs": [],
      "name": "owner",
      "outputs": [
        {
          "internalType": "address",
          "name": "",
          "type": "address"
        }
      ],
      "stateMutability": "view",
      "type": "function",
      "constant": true
    },
    {
      "inputs": [],
      "name": "renounceOwnership",
      "outputs": [],
      "stateMutability": "nonpayable",
      "type": "function"
    },
    {
      "inputs": [
        {
          "internalType": "uint256",
          "name": "",
          "type": "uint256"
        }
      ],
      "name": "tgePercentage",
      "outputs": [
        {
          "internalType": "uint256",
          "name": "",
          "type": "uint256"
        }
      ],
      "stateMutability": "view",
      "type": "function",
      "constant": true
    },
    {
      "inputs": [],
      "name": "token",
      "outputs": [
        {
          "internalType": "contract IERC20",
          "name": "",
          "type": "address"
        }
      ],
      "stateMutability": "view",
      "type": "function",
      "constant": true
    },
    {
      "inputs": [
        {
          "internalType": "address",
          "name": "",
          "type": "address"
        }
      ],
      "name": "tokensWithdrawable",
      "outputs": [
        {
          "internalType": "uint256",
          "name": "",
          "type": "uint256"
        }
      ],
      "stateMutability": "view",
      "type": "function",
      "constant": true
    },
    {
      "inputs": [
        {
          "internalType": "uint256",
          "name": "",
          "type": "uint256"
        }
      ],
      "name": "totalTokensAvaliablePerRole",
      "outputs": [
        {
          "internalType": "uint256",
          "name": "",
          "type": "uint256"
        }
      ],
      "stateMutability": "view",
      "type": "function",
      "constant": true
    },
    {
      "inputs": [],
      "name": "totalTokensLeftForVesting",
      "outputs": [
        {
          "internalType": "uint256",
          "name": "",
          "type": "uint256"
        }
      ],
      "stateMutability": "view",
      "type": "function",
      "constant": true
    },
    {
      "inputs": [
        {
          "internalType": "address",
          "name": "newOwner",
          "type": "address"
        }
      ],
      "name": "transferOwnership",
      "outputs": [],
      "stateMutability": "nonpayable",
      "type": "function"
    },
    {
      "inputs": [
        {
          "internalType": "uint256",
          "name": "_cliffPeriodInDays",
          "type": "uint256"
        },
        {
          "internalType": "uint256",
          "name": "_vestingDurationInDays",
          "type": "uint256"
        },
        {
          "internalType": "uint256",
          "name": "_advisorPercent",
          "type": "uint256"
        },
        {
          "internalType": "uint256",
          "name": "_PartnerPercent",
          "type": "uint256"
        },
        {
          "internalType": "uint256",
          "name": "_mentorPercent",
          "type": "uint256"
        }
      ],
      "name": "setVestingAndTokenAllocationDetails",
      "outputs": [],
      "stateMutability": "nonpayable",
      "type": "function"
    },
    {
      "inputs": [],
      "name": "allocateTokensForRoles",
      "outputs": [],
      "stateMutability": "nonpayable",
      "type": "function"
    },
    {
      "inputs": [
        {
          "internalType": "address",
          "name": "_beneficiary",
          "type": "address"
        },
        {
          "internalType": "enum Vesting.Roles",
          "name": "_role",
          "type": "uint8"
        },
        {
          "internalType": "uint256",
          "name": "_amount",
          "type": "uint256"
        }
      ],
      "name": "addBeneficiary",
      "outputs": [],
      "stateMutability": "nonpayable",
      "type": "function"
    },
    {
      "inputs": [
        {
          "internalType": "address",
          "name": "_beneficiary",
          "type": "address"
        }
      ],
      "name": "revokeBeneficiary",
      "outputs": [],
      "stateMutability": "nonpayable",
      "type": "function"
    },
    {
      "inputs": [
        {
          "internalType": "address",
          "name": "_beneficiary",
          "type": "address"
        }
      ],
      "name": "releaseTokens",
      "outputs": [],
      "stateMutability": "nonpayable",
      "type": "function"
    },
    {
      "inputs": [
        {
          "internalType": "address",
          "name": "_beneficiary",
          "type": "address"
        },
        {
          "internalType": "uint256",
          "name": "_amount",
          "type": "uint256"
        }
      ],
      "name": "withdrawTokens",
      "outputs": [],
      "stateMutability": "nonpayable",
      "type": "function"
    },
    {
      "inputs": [
        {
          "internalType": "address",
          "name": "_beneficiary",
          "type": "address"
        }
      ],
      "name": "getTokensReleased",
      "outputs": [
        {
          "internalType": "uint256",
          "name": "",
          "type": "uint256"
        }
      ],
      "stateMutability": "view",
      "type": "function",
      "constant": true
    },
    {
      "inputs": [
        {
          "internalType": "address",
          "name": "_beneficiary",
          "type": "address"
        }
      ],
      "name": "getTokensWithdrawn",
      "outputs": [
        {
          "internalType": "uint256",
          "name": "",
          "type": "uint256"
        }
      ],
      "stateMutability": "view",
      "type": "function",
      "constant": true
    }
  ],
  "bytecode": "0x6080604052600060015560006002553480156200001b57600080fd5b5060405162002fce38038062002fce83398181016040528101906200004191906200018c565b6200006162000055620000a960201b60201c565b620000b160201b60201c565b80600560006101000a81548173ffffffffffffffffffffffffffffffffffffffff021916908373ffffffffffffffffffffffffffffffffffffffff160217905550506200021a565b600033905090565b60008060009054906101000a900473ffffffffffffffffffffffffffffffffffffffff169050816000806101000a81548173ffffffffffffffffffffffffffffffffffffffff021916908373ffffffffffffffffffffffffffffffffffffffff1602179055508173ffffffffffffffffffffffffffffffffffffffff168173ffffffffffffffffffffffffffffffffffffffff167f8be0079c531659141344cd1fd0a4f28419497f9722a3daafe3b4186f6b6457e060405160405180910390a35050565b600081519050620001868162000200565b92915050565b6000602082840312156200019f57600080fd5b6000620001af8482850162000175565b91505092915050565b6000620001c582620001e0565b9050919050565b6000620001d982620001b8565b9050919050565b600073ffffffffffffffffffffffffffffffffffffffff82169050919050565b6200020b81620001cc565b81146200021757600080fd5b50565b612da4806200022a6000396000f3fe608060405234801561001057600080fd5b506004361061010b5760003560e01c8063715018a6116100a2578063c53abacf11610071578063c53abacf14610299578063e045e921146102b5578063f2fde38b146102e5578063f428a44c14610301578063fc0c546a146103315761010b565b8063715018a61461024b57806387b0be48146102555780638da5cb5b14610271578063bcce83af1461028f5761010b565b80634a377be7116100de5780634a377be7146101b15780634bd39c02146101e1578063500ff48f146101ff5780635c160f661461022f5761010b565b8063015677391461011057806306b091f91461014957806313f0bb511461016557806346dd6fcd14610195575b600080fd5b61012a60048036038101906101259190612033565b61034f565b6040516101409a99989796959493929190612475565b60405180910390f35b610163600480360381019061015e91906120ab565b6103dd565b005b61017f600480360381019061017a9190612033565b610647565b60405161018c9190612735565b60405180910390f35b6101af60048036038101906101aa9190612033565b610873565b005b6101cb60048036038101906101c69190612033565b610a26565b6040516101d89190612735565b60405180910390f35b6101e9610a3e565b6040516101f69190612735565b60405180910390f35b61021960048036038101906102149190612033565b610a44565b6040516102269190612735565b60405180910390f35b6102496004803603810190610244919061205c565b610c6d565b005b610253611196565b005b61026f600480360381019061026a9190612033565b61121e565b005b610279611628565b6040516102869190612431565b60405180910390f35b610297611651565b005b6102b360048036038101906102ae9190612162565b611900565b005b6102cf60048036038101906102ca9190612110565b6119f7565b6040516102dc9190612735565b60405180910390f35b6102ff60048036038101906102fa9190612033565b611a0f565b005b61031b60048036038101906103169190612110565b611b07565b6040516103289190612735565b60405180910390f35b610339611b1f565b604051610346919061253a565b60405180910390f35b60076020528060005260406000206000915090508060000160009054906101000a900473ffffffffffffffffffffffffffffffffffffffff16908060000160149054906101000a900460ff16908060010154908060020154908060030154908060040160009054906101000a900460ff1690806005015490806006015490806007015490806008015490508a565b6103e68261121e565b60008111610429576040517f08c379a0000000000000000000000000000000000000000000000000000000008152600401610420906125f5565b60405180910390fd5b80600860008473ffffffffffffffffffffffffffffffffffffffff1673ffffffffffffffffffffffffffffffffffffffff1681526020019081526020016000205410156104ab576040517f08c379a00000000000000000000000000000000000000000000000000000000081526004016104a290612715565b60405180910390fd5b80600860008473ffffffffffffffffffffffffffffffffffffffff1673ffffffffffffffffffffffffffffffffffffffff16815260200190815260200160002060008282546104fa9190612842565b9250508190555080600760008473ffffffffffffffffffffffffffffffffffffffff1673ffffffffffffffffffffffffffffffffffffffff16815260200190815260200160002060080160008282546105539190612761565b92505081905550600560009054906101000a900473ffffffffffffffffffffffffffffffffffffffff1673ffffffffffffffffffffffffffffffffffffffff1663a9059cbb83836040518363ffffffff1660e01b81526004016105b7929190612511565b602060405180830381600087803b1580156105d157600080fd5b505af11580156105e5573d6000803e3d6000fd5b505050506040513d601f19601f8201168201806040525081019061060991906120e7565b507fe609b91bda36992624c0af3224e01c611c2d9c030c44f723c505fa2ada2bce1a828260405161063b929190612511565b60405180910390a15050565b600081600760008273ffffffffffffffffffffffffffffffffffffffff1673ffffffffffffffffffffffffffffffffffffffff16815260200190815260200160002060040160009054906101000a900460ff16156106da576040517f08c379a00000000000000000000000000000000000000000000000000000000081526004016106d1906125d5565b60405180910390fd5b6106e2611b45565b73ffffffffffffffffffffffffffffffffffffffff16610700611628565b73ffffffffffffffffffffffffffffffffffffffff1614610756576040517f08c379a000000000000000000000000000000000000000000000000000000000815260040161074d90612615565b60405180910390fd5b828073ffffffffffffffffffffffffffffffffffffffff16600760008373ffffffffffffffffffffffffffffffffffffffff1673ffffffffffffffffffffffffffffffffffffffff16815260200190815260200160002060000160009054906101000a900473ffffffffffffffffffffffffffffffffffffffff1673ffffffffffffffffffffffffffffffffffffffff1614610827576040517f08c379a000000000000000000000000000000000000000000000000000000000815260040161081e90612555565b60405180910390fd5b600760008573ffffffffffffffffffffffffffffffffffffffff1673ffffffffffffffffffffffffffffffffffffffff1681526020019081526020016000206008015492505050919050565b61087b611b45565b73ffffffffffffffffffffffffffffffffffffffff16610899611628565b73ffffffffffffffffffffffffffffffffffffffff16146108ef576040517f08c379a00000000000000000000000000000000000000000000000000000000081526004016108e690612615565b60405180910390fd5b6108f881611b4d565b15610938576040517f08c379a000000000000000000000000000000000000000000000000000000000815260040161092f90612635565b60405180910390fd5b600760008273ffffffffffffffffffffffffffffffffffffffff1673ffffffffffffffffffffffffffffffffffffffff16815260200190815260200160002060040160009054906101000a900460ff16156109c8576040517f08c379a00000000000000000000000000000000000000000000000000000000081526004016109bf90612695565b60405180910390fd5b6001600760008373ffffffffffffffffffffffffffffffffffffffff1673ffffffffffffffffffffffffffffffffffffffff16815260200190815260200160002060040160006101000a81548160ff02191690831515021790555050565b60086020528060005260406000206000915090505481565b60035481565b600081600760008273ffffffffffffffffffffffffffffffffffffffff1673ffffffffffffffffffffffffffffffffffffffff16815260200190815260200160002060040160009054906101000a900460ff1615610ad7576040517f08c379a0000000000000000000000000000000000000000000000000000000008152600401610ace906125d5565b60405180910390fd5b610adf611b45565b73ffffffffffffffffffffffffffffffffffffffff16610afd611628565b73ffffffffffffffffffffffffffffffffffffffff1614610b53576040517f08c379a0000000000000000000000000000000000000000000000000000000008152600401610b4a90612615565b60405180910390fd5b828073ffffffffffffffffffffffffffffffffffffffff16600760008373ffffffffffffffffffffffffffffffffffffffff1673ffffffffffffffffffffffffffffffffffffffff16815260200190815260200160002060000160009054906101000a900473ffffffffffffffffffffffffffffffffffffffff1673ffffffffffffffffffffffffffffffffffffffff1614610c24576040517f08c379a0000000000000000000000000000000000000000000000000000000008152600401610c1b90612555565b60405180910390fd5b600860008573ffffffffffffffffffffffffffffffffffffffff1673ffffffffffffffffffffffffffffffffffffffff1681526020019081526020016000205492505050919050565b610c75611b45565b73ffffffffffffffffffffffffffffffffffffffff16610c93611628565b73ffffffffffffffffffffffffffffffffffffffff1614610ce9576040517f08c379a0000000000000000000000000000000000000000000000000000000008152600401610ce090612615565b60405180910390fd5b610cf1611628565b73ffffffffffffffffffffffffffffffffffffffff168373ffffffffffffffffffffffffffffffffffffffff161415610d5f576040517f08c379a0000000000000000000000000000000000000000000000000000000008152600401610d56906126d5565b60405180910390fd5b600073ffffffffffffffffffffffffffffffffffffffff168373ffffffffffffffffffffffffffffffffffffffff161415610dcf576040517f08c379a0000000000000000000000000000000000000000000000000000000008152600401610dc690612595565b60405180910390fd5b6000811415610e13576040517f08c379a0000000000000000000000000000000000000000000000000000000008152600401610e0a90612675565b60405180910390fd5b610e1c83611b4d565b610e5b576040517f08c379a0000000000000000000000000000000000000000000000000000000008152600401610e52906126b5565b60405180910390fd5b8060066000846002811115610e99577f4e487b7100000000000000000000000000000000000000000000000000000000600052602160045260246000fd5b8152602001908152602001600020541015610ee9576040517f08c379a0000000000000000000000000000000000000000000000000000000008152600401610ee0906126f5565b60405180910390fd5b8060066000846002811115610f27577f4e487b7100000000000000000000000000000000000000000000000000000000600052602160045260246000fd5b81526020019081526020016000206000828254610f449190612842565b9250508190555060006040518061014001604052808573ffffffffffffffffffffffffffffffffffffffff168152602001846002811115610fae577f4e487b7100000000000000000000000000000000000000000000000000000000600052602160045260246000fd5b815260200142815260200160015442610fc79190612761565b815260200160025460015442610fdd9190612761565b610fe79190612761565b8152602001600015158152602001838152602001838152602001600081526020016000815250905080600760008673ffffffffffffffffffffffffffffffffffffffff1673ffffffffffffffffffffffffffffffffffffffff16815260200190815260200160002060008201518160000160006101000a81548173ffffffffffffffffffffffffffffffffffffffff021916908373ffffffffffffffffffffffffffffffffffffffff16021790555060208201518160000160146101000a81548160ff021916908360028111156110e7577f4e487b7100000000000000000000000000000000000000000000000000000000600052602160045260246000fd5b021790555060408201518160010155606082015181600201556080820151816003015560a08201518160040160006101000a81548160ff02191690831515021790555060c0820151816005015560e08201518160060155610100820151816007015561012082015181600801559050507fef33e8c1b39e06f8e1a34f21cb7e8e7393c970ee3b23d6f40cd6cf2007d71beb848460405161118892919061244c565b60405180910390a150505050565b61119e611b45565b73ffffffffffffffffffffffffffffffffffffffff166111bc611628565b73ffffffffffffffffffffffffffffffffffffffff1614611212576040517f08c379a000000000000000000000000000000000000000000000000000000000815260040161120990612615565b60405180910390fd5b61121c6000611c64565b565b611226611b45565b73ffffffffffffffffffffffffffffffffffffffff16611244611628565b73ffffffffffffffffffffffffffffffffffffffff161461129a576040517f08c379a000000000000000000000000000000000000000000000000000000000815260040161129190612615565b60405180910390fd5b808073ffffffffffffffffffffffffffffffffffffffff16600760008373ffffffffffffffffffffffffffffffffffffffff1673ffffffffffffffffffffffffffffffffffffffff16815260200190815260200160002060000160009054906101000a900473ffffffffffffffffffffffffffffffffffffffff1673ffffffffffffffffffffffffffffffffffffffff161461136b576040517f08c379a000000000000000000000000000000000000000000000000000000000815260040161136290612555565b60405180910390fd5b60008061137784611b4d565b156113b7576040517f08c379a00000000000000000000000000000000000000000000000000000000081526004016113ae90612635565b60405180910390fd5b600760008573ffffffffffffffffffffffffffffffffffffffff1673ffffffffffffffffffffffffffffffffffffffff16815260200190815260200160002060040160009054906101000a900460ff1615611447576040517f08c379a000000000000000000000000000000000000000000000000000000000815260040161143e906125d5565b60405180910390fd5b61145084611d28565b9150600760008573ffffffffffffffffffffffffffffffffffffffff1673ffffffffffffffffffffffffffffffffffffffff16815260200190815260200160002060070154826114a09190612842565b905080600760008673ffffffffffffffffffffffffffffffffffffffff1673ffffffffffffffffffffffffffffffffffffffff16815260200190815260200160002060070160008282546114f49190612761565b9250508190555080600860008673ffffffffffffffffffffffffffffffffffffffff1673ffffffffffffffffffffffffffffffffffffffff168152602001908152602001600020600082825461154a9190612761565b9250508190555080600760008673ffffffffffffffffffffffffffffffffffffffff1673ffffffffffffffffffffffffffffffffffffffff16815260200190815260200160002060060160008282546115a39190612842565b925050819055507faf26790a550faf1742b32f2c26d42117d1788b90434675b9327399dee536bc7284600860008773ffffffffffffffffffffffffffffffffffffffff1673ffffffffffffffffffffffffffffffffffffffff1681526020019081526020016000205460405161161a929190612511565b60405180910390a150505050565b60008060009054906101000a900473ffffffffffffffffffffffffffffffffffffffff16905090565b611659611b45565b73ffffffffffffffffffffffffffffffffffffffff16611677611628565b73ffffffffffffffffffffffffffffffffffffffff16146116cd576040517f08c379a00000000000000000000000000000000000000000000000000000000081526004016116c490612615565b60405180910390fd5b6000600560009054906101000a900473ffffffffffffffffffffffffffffffffffffffff1673ffffffffffffffffffffffffffffffffffffffff166370a08231306040518263ffffffff1660e01b815260040161172a9190612431565b60206040518083038186803b15801561174257600080fd5b505afa158015611756573d6000803e3d6000fd5b505050506040513d601f19601f8201168201806040525081019061177a9190612139565b9050600081116117bf576040517f08c379a00000000000000000000000000000000000000000000000000000000081526004016117b690612655565b60405180910390fd5b6117c7611eff565b60646009600080815260200190815260200160002054826117e891906127e8565b6117f291906127b7565b600660008081526020019081526020016000208190555060646009600060018152602001908152602001600020548261182b91906127e8565b61183591906127b7565b60066000600181526020019081526020016000208190555060646009600060028152602001908152602001600020548261186f91906127e8565b61187991906127b7565b60066000600281526020019081526020016000208190555060066000600281526020019081526020016000205460066000600181526020019081526020016000205460066000808152602001908152602001600020546118d99190612761565b6118e39190612761565b600481905550600454816118f79190612842565b60038190555050565b611908611b45565b73ffffffffffffffffffffffffffffffffffffffff16611926611628565b73ffffffffffffffffffffffffffffffffffffffff161461197c576040517f08c379a000000000000000000000000000000000000000000000000000000000815260040161197390612615565b60405180910390fd5b620151808561198b91906127e8565b60018190555062015180846119a091906127e8565b60028190555082600960008081526020019081526020016000208190555081600960006001815260200190815260200160002081905550806009600060028152602001908152602001600020819055505050505050565b60066020528060005260406000206000915090505481565b611a17611b45565b73ffffffffffffffffffffffffffffffffffffffff16611a35611628565b73ffffffffffffffffffffffffffffffffffffffff1614611a8b576040517f08c379a0000000000000000000000000000000000000000000000000000000008152600401611a8290612615565b60405180910390fd5b600073ffffffffffffffffffffffffffffffffffffffff168173ffffffffffffffffffffffffffffffffffffffff161415611afb576040517f08c379a0000000000000000000000000000000000000000000000000000000008152600401611af2906125b5565b60405180910390fd5b611b0481611c64565b50565b60096020528060005260406000206000915090505481565b600560009054906101000a900473ffffffffffffffffffffffffffffffffffffffff1681565b600033905090565b6000611b57611b45565b73ffffffffffffffffffffffffffffffffffffffff16611b75611628565b73ffffffffffffffffffffffffffffffffffffffff1614611bcb576040517f08c379a0000000000000000000000000000000000000000000000000000000008152600401611bc290612615565b60405180910390fd5b600073ffffffffffffffffffffffffffffffffffffffff16600760008473ffffffffffffffffffffffffffffffffffffffff1673ffffffffffffffffffffffffffffffffffffffff16815260200190815260200160002060000160009054906101000a900473ffffffffffffffffffffffffffffffffffffffff1673ffffffffffffffffffffffffffffffffffffffff16149050919050565b60008060009054906101000a900473ffffffffffffffffffffffffffffffffffffffff169050816000806101000a81548173ffffffffffffffffffffffffffffffffffffffff021916908373ffffffffffffffffffffffffffffffffffffffff1602179055508173ffffffffffffffffffffffffffffffffffffffff168173ffffffffffffffffffffffffffffffffffffffff167f8be0079c531659141344cd1fd0a4f28419497f9722a3daafe3b4186f6b6457e060405160405180910390a35050565b6000600760008373ffffffffffffffffffffffffffffffffffffffff1673ffffffffffffffffffffffffffffffffffffffff16815260200190815260200160002060010154600154611d7a9190612761565b421015611dbc576040517f08c379a0000000000000000000000000000000000000000000000000000000008152600401611db390612575565b60405180910390fd5b600760008373ffffffffffffffffffffffffffffffffffffffff1673ffffffffffffffffffffffffffffffffffffffff168152602001908152602001600020600301544210611e4f57600760008373ffffffffffffffffffffffffffffffffffffffff1673ffffffffffffffffffffffffffffffffffffffff168152602001908152602001600020600501549050611efa565b600254600760008473ffffffffffffffffffffffffffffffffffffffff1673ffffffffffffffffffffffffffffffffffffffff1681526020019081526020016000206002015442611ea09190612842565b600760008573ffffffffffffffffffffffffffffffffffffffff1673ffffffffffffffffffffffffffffffffffffffff16815260200190815260200160002060050154611eed91906127e8565b611ef791906127b7565b90505b919050565b611f07611b45565b73ffffffffffffffffffffffffffffffffffffffff16611f25611628565b73ffffffffffffffffffffffffffffffffffffffff1614611f7b576040517f08c379a0000000000000000000000000000000000000000000000000000000008152600401611f7290612615565b60405180910390fd5b60056009600080815260200190815260200160002081905550600a6009600060018152602001908152602001600020819055506007600960006002815260200190815260200160002081905550565b600081359050611fd981612d19565b92915050565b600081519050611fee81612d30565b92915050565b60008135905061200381612d47565b92915050565b60008135905061201881612d57565b92915050565b60008151905061202d81612d57565b92915050565b60006020828403121561204557600080fd5b600061205384828501611fca565b91505092915050565b60008060006060848603121561207157600080fd5b600061207f86828701611fca565b935050602061209086828701611ff4565b92505060406120a186828701612009565b9150509250925092565b600080604083850312156120be57600080fd5b60006120cc85828601611fca565b92505060206120dd85828601612009565b9150509250929050565b6000602082840312156120f957600080fd5b600061210784828501611fdf565b91505092915050565b60006020828403121561212257600080fd5b600061213084828501612009565b91505092915050565b60006020828403121561214b57600080fd5b60006121598482850161201e565b91505092915050565b600080600080600060a0868803121561217a57600080fd5b600061218888828901612009565b955050602061219988828901612009565b94505060406121aa88828901612009565b93505060606121bb88828901612009565b92505060806121cc88828901612009565b9150509295509295909350565b6121e281612876565b82525050565b6121f181612888565b82525050565b612200816128d1565b82525050565b61220f816128f5565b82525050565b6000612222601783612750565b915061222d82612994565b602082019050919050565b6000612245601883612750565b9150612250826129bd565b602082019050919050565b6000612268602583612750565b9150612273826129e6565b604082019050919050565b600061228b602683612750565b915061229682612a35565b604082019050919050565b60006122ae602383612750565b91506122b982612a84565b604082019050919050565b60006122d1602c83612750565b91506122dc82612ad3565b604082019050919050565b60006122f4602083612750565b91506122ff82612b22565b602082019050919050565b6000612317601b83612750565b915061232282612b4b565b602082019050919050565b600061233a602383612750565b915061234582612b74565b604082019050919050565b600061235d601f83612750565b915061236882612bc3565b602082019050919050565b6000612380601c83612750565b915061238b82612bec565b602082019050919050565b60006123a3601c83612750565b91506123ae82612c15565b602082019050919050565b60006123c6601d83612750565b91506123d182612c3e565b602082019050919050565b60006123e9603883612750565b91506123f482612c67565b604082019050919050565b600061240c603883612750565b915061241782612cb6565b604082019050919050565b61242b816128c7565b82525050565b600060208201905061244660008301846121d9565b92915050565b600060408201905061246160008301856121d9565b61246e6020830184612206565b9392505050565b60006101408201905061248b600083018d6121d9565b612498602083018c612206565b6124a5604083018b612422565b6124b2606083018a612422565b6124bf6080830189612422565b6124cc60a08301886121e8565b6124d960c0830187612422565b6124e660e0830186612422565b6124f4610100830185612422565b612502610120830184612422565b9b9a5050505050505050505050565b600060408201905061252660008301856121d9565b6125336020830184612422565b9392505050565b600060208201905061254f60008301846121f7565b92915050565b6000602082019050818103600083015261256e81612215565b9050919050565b6000602082019050818103600083015261258e81612238565b9050919050565b600060208201905081810360008301526125ae8161225b565b9050919050565b600060208201905081810360008301526125ce8161227e565b9050919050565b600060208201905081810360008301526125ee816122a1565b9050919050565b6000602082019050818103600083015261260e816122c4565b9050919050565b6000602082019050818103600083015261262e816122e7565b9050919050565b6000602082019050818103600083015261264e8161230a565b9050919050565b6000602082019050818103600083015261266e8161232d565b9050919050565b6000602082019050818103600083015261268e81612350565b9050919050565b600060208201905081810360008301526126ae81612373565b9050919050565b600060208201905081810360008301526126ce81612396565b9050919050565b600060208201905081810360008301526126ee816123b9565b9050919050565b6000602082019050818103600083015261270e816123dc565b9050919050565b6000602082019050818103600083015261272e816123ff565b9050919050565b600060208201905061274a6000830184612422565b92915050565b600082825260208201905092915050565b600061276c826128c7565b9150612777836128c7565b9250827fffffffffffffffffffffffffffffffffffffffffffffffffffffffffffffffff038211156127ac576127ab612907565b5b828201905092915050565b60006127c2826128c7565b91506127cd836128c7565b9250826127dd576127dc612936565b5b828204905092915050565b60006127f3826128c7565b91506127fe836128c7565b9250817fffffffffffffffffffffffffffffffffffffffffffffffffffffffffffffffff048311821515161561283757612836612907565b5b828202905092915050565b600061284d826128c7565b9150612858836128c7565b92508282101561286b5761286a612907565b5b828203905092915050565b6000612881826128a7565b9050919050565b60008115159050919050565b60008190506128a282612d05565b919050565b600073ffffffffffffffffffffffffffffffffffffffff82169050919050565b6000819050919050565b60006128dc826128e3565b9050919050565b60006128ee826128a7565b9050919050565b600061290082612894565b9050919050565b7f4e487b7100000000000000000000000000000000000000000000000000000000600052601160045260246000fd5b7f4e487b7100000000000000000000000000000000000000000000000000000000600052601260045260246000fd5b7f4e487b7100000000000000000000000000000000000000000000000000000000600052602160045260246000fd5b7f4e6f7420612056616c69642042656e6566696369617279000000000000000000600082015250565b7f546f6b656e73206e6f742072656c6561736564207965742e0000000000000000600082015250565b7f63616e277420736574206e756c6c20616464726573732061732062656e65666960008201527f6369617279000000000000000000000000000000000000000000000000000000602082015250565b7f4f776e61626c653a206e6577206f776e657220697320746865207a65726f206160008201527f6464726573730000000000000000000000000000000000000000000000000000602082015250565b7f43616e27742070726f636565642c2062656e6566696369617279207265766f6b60008201527f65642e0000000000000000000000000000000000000000000000000000000000602082015250565b7f576974686472617761626c6520616d6f756e742073686f756c6420626520677260008201527f6561746572207468616e20300000000000000000000000000000000000000000602082015250565b7f4f776e61626c653a2063616c6c6572206973206e6f7420746865206f776e6572600082015250565b7f42656e656669636961727920646f6573206e6f742065786973742e0000000000600082015250565b7f4e6f20746f6b656e7320616c6c6f636174656420746f2074686520636f6e747260008201527f6163740000000000000000000000000000000000000000000000000000000000602082015250565b7f616d6f756e742073686f756c642062652067726561746572207468616e203000600082015250565b7f62656e656669636961727920616c7265616479207265766f6b65642e00000000600082015250565b7f62656e656669636961727920616c72656164792070726573656e742e00000000600082015250565b7f4f776e65722063616e6e6f7420626520612062656e6566696369617279000000600082015250565b7f546f6b656e73206e6f7420616c6c6f6361746564206f7220746f6b656e73206c60008201527f696d69742070657220726f6c65206578686175737465642e0000000000000000602082015250565b7f496e73756666696369656e742046756e64732c20506c65617365206c6f77657260008201527f2074686520616d6f756e7420746f2077697468647261772e0000000000000000602082015250565b60038110612d1657612d15612965565b5b50565b612d2281612876565b8114612d2d57600080fd5b50565b612d3981612888565b8114612d4457600080fd5b50565b60038110612d5457600080fd5b50565b612d60816128c7565b8114612d6b57600080fd5b5056fea26469706673582212208ceaa7c1ac35b04ffe45346c5c569c74fb12661d40a04dfc5c45a5b6c62dcaf264736f6c63430008040033",
  "immutableReferences": {},
  "source": "//SPDX-License-Identifier: MIT\r\n\r\npragma solidity ^0.8.0;\r\n\r\nimport \"@openzeppelin/contracts/token/ERC20/IERC20.sol\";\r\nimport \"@openzeppelin/contracts/access/Ownable.sol\";\r\n\r\ncontract Vesting is Ownable {\r\n    uint256 private cliff = 0 * 30 days;\r\n    uint256 private duration = 0 * 30 days;\r\n    uint256 public totalTokensLeftForVesting;\r\n    uint256 private totalTokenAllocatedForRoles;\r\n\r\n    IERC20 public token;\r\n\r\n    enum Roles {\r\n        Advisors,\r\n        Partners,\r\n        Mentors\r\n    }\r\n\r\n    Roles private role;\r\n\r\n    struct Beneficiary {\r\n        address beneficiary;\r\n        Roles role;\r\n        uint256 vestingStartTime;\r\n        uint256 vestingcliffExpiryTime;\r\n        uint256 vestingDurationExpiryTime;\r\n        bool isVestingRevoked;\r\n        uint256 fullyVestedAmount;\r\n        uint256 currentVestedAmount;\r\n        uint256 tokensReleasedTillNow;\r\n        uint256 tokensWithdrawn;\r\n    }\r\n\r\n    mapping(uint256 => uint256) public totalTokensAvaliablePerRole;\r\n    mapping(address => Beneficiary) public beneficiaries;\r\n    mapping(address => uint256) public tokensWithdrawable;\r\n    mapping(uint256 => uint256) public tgePercentage;\r\n\r\n    event beneficiaryAdded(address _beneficiary, Roles _role);\r\n    event tokensReleased(address _beneficiary, uint256 tokensWithdrawable);\r\n    event tokensWithdrawn(address _beneficiary, uint256 _tokens);\r\n\r\n    constructor(IERC20 _token) {\r\n        token = _token;\r\n    }\r\n\r\n    modifier onlyBeneficiary(address _beneficiary) {\r\n        require(beneficiaries[_beneficiary].beneficiary == _beneficiary,\"Not a Valid Beneficiary\");\r\n        _;\r\n    }\r\n\r\n    modifier isRevoked(address _beneficiary) {\r\n        require(\r\n            !beneficiaries[_beneficiary].isVestingRevoked,\r\n            \"Can't proceed, beneficiary revoked.\"\r\n        );\r\n        _;\r\n    }\r\n\r\n    function setVestingAndTokenAllocationDetails(\r\n        uint256 _cliffPeriodInDays,\r\n        uint256 _vestingDurationInDays,\r\n        uint256 _advisorPercent,\r\n        uint256 _PartnerPercent,\r\n        uint256 _mentorPercent\r\n    ) public onlyOwner {\r\n        cliff = _cliffPeriodInDays * 1 days;\r\n        duration = _vestingDurationInDays * 1 days;\r\n        tgePercentage[0] = _advisorPercent;\r\n        tgePercentage[1] = _PartnerPercent;\r\n        tgePercentage[2] = _mentorPercent;\r\n    }\r\n\r\n    function setTGEPercent() private onlyOwner {\r\n        tgePercentage[0] = 5;\r\n        tgePercentage[1] = 10;\r\n        tgePercentage[2] = 7;\r\n    }\r\n\r\n    function allocateTokensForRoles() public onlyOwner {\r\n        /// @dev Token balance of this contract\r\n\r\n        \r\n        uint256 contractTokenBalance = IERC20(token).balanceOf(\r\n            address(this)\r\n        );\r\n        require(\r\n            contractTokenBalance > 0,\r\n            \"No tokens allocated to the contract\"\r\n        );\r\n        setTGEPercent();\r\n        totalTokensAvaliablePerRole[0] =\r\n            (contractTokenBalance * tgePercentage[0]) /\r\n            100;\r\n        totalTokensAvaliablePerRole[1] =\r\n            (contractTokenBalance * tgePercentage[1]) /\r\n            100;\r\n        totalTokensAvaliablePerRole[2] =\r\n            (contractTokenBalance * tgePercentage[2]) /\r\n            100;\r\n\r\n        totalTokenAllocatedForRoles =\r\n            totalTokensAvaliablePerRole[0] +\r\n            totalTokensAvaliablePerRole[1] +\r\n            totalTokensAvaliablePerRole[2];\r\n\r\n        totalTokensLeftForVesting =\r\n            contractTokenBalance -\r\n            totalTokenAllocatedForRoles;\r\n    }\r\n\r\n    function addBeneficiary(\r\n        address _beneficiary,\r\n        Roles _role,\r\n        uint256 _amount\r\n    ) public onlyOwner {\r\n        require(_beneficiary != owner(), \"Owner cannot be a beneficiary\");\r\n        require(\r\n            _beneficiary != address(0),\r\n            \"can't set null address as beneficiary\"\r\n        );\r\n        require(_amount != 0, \"amount should be greater than 0\");\r\n\r\n        // Check if beneficiary already present\r\n\r\n        require(\r\n            validateBeneficiary(_beneficiary),\r\n            \"beneficiary already present.\"\r\n        );\r\n\r\n        // check if tokens are avaliable for that specific role\r\n\r\n        require(\r\n            totalTokensAvaliablePerRole[uint256(_role)] >= _amount,\r\n            \"Tokens not allocated or tokens limit per role exhausted.\"\r\n        );\r\n\r\n        // adjust total value of tokens avaliable for role\r\n        totalTokensAvaliablePerRole[uint256(_role)] -= _amount;\r\n\r\n        // add a new beneficiary\r\n        Beneficiary memory beneficiary = Beneficiary(\r\n            _beneficiary,\r\n            _role,\r\n            block.timestamp,\r\n            block.timestamp + cliff,\r\n            block.timestamp + cliff + duration,\r\n            false,\r\n            _amount,\r\n            _amount,\r\n            0,\r\n            0\r\n        );\r\n\r\n        beneficiaries[_beneficiary] = beneficiary;\r\n\r\n        emit beneficiaryAdded(_beneficiary, _role);\r\n    }\r\n\r\n    function validateBeneficiary(address _beneficiary)\r\n        private\r\n        onlyOwner\r\n        view\r\n        returns (bool)\r\n    {\r\n        return beneficiaries[_beneficiary].beneficiary == address(0);\r\n    }\r\n\r\n    function revokeBeneficiary(address _beneficiary) public onlyOwner {\r\n        require(\r\n            !validateBeneficiary(_beneficiary),\r\n            \"Beneficiary does not exist.\"\r\n        );\r\n        require(\r\n            !beneficiaries[_beneficiary].isVestingRevoked,\r\n            \"beneficiary already revoked.\"\r\n        );\r\n        beneficiaries[_beneficiary].isVestingRevoked = true;\r\n    }\r\n\r\n    // //To get Beneficiary details\r\n    // function getBenificiaryDetails(address _beneficiary) public onlyBeneficiary(_beneficiary) view returns (Beneficiary memory) {\r\n    //     return beneficiaries[_beneficiary];\r\n    // }\r\n\r\n    function releaseTokens(address _beneficiary) public onlyOwner onlyBeneficiary(_beneficiary) {\r\n        uint256 releasableTokens;\r\n        uint256 tokensToBeReleased;\r\n        require(\r\n            !validateBeneficiary(_beneficiary),\r\n            \"Beneficiary does not exist.\"\r\n        );\r\n        require(\r\n            !beneficiaries[_beneficiary].isVestingRevoked,\r\n            \"Can't proceed, beneficiary revoked.\"\r\n        );\r\n        // Get total tokens that can be released at a specific time.\r\n        releasableTokens = getTokensToRelease(_beneficiary);\r\n        // calculate tokens to release by substracting already received tokens.\r\n        tokensToBeReleased =\r\n            releasableTokens -\r\n            beneficiaries[_beneficiary].tokensReleasedTillNow;\r\n        // update released tokens for a beneficiary value\r\n        beneficiaries[_beneficiary].tokensReleasedTillNow += tokensToBeReleased;\r\n\r\n        //update the tokensWithdrawable value\r\n        tokensWithdrawable[_beneficiary] += tokensToBeReleased;\r\n        // update the currentVestedTokens value\r\n        beneficiaries[_beneficiary].currentVestedAmount -= tokensToBeReleased;\r\n\r\n        // emit the event\r\n        emit tokensReleased(_beneficiary, tokensWithdrawable[_beneficiary]);\r\n    }\r\n\r\n    function withdrawTokens(address _beneficiary, uint256 _amount) public {\r\n        releaseTokens(_beneficiary);\r\n        require(_amount > 0, \"Withdrawable amount should be greater than 0\");\r\n        require(\r\n            tokensWithdrawable[_beneficiary] >= _amount,\r\n            \"Insufficient Funds, Please lower the amount to withdraw.\"\r\n        );\r\n\r\n        // update the withdraw tokens value\r\n        tokensWithdrawable[_beneficiary] -= _amount;\r\n\r\n        // update tokens received value\r\n        beneficiaries[_beneficiary].tokensWithdrawn += _amount;\r\n\r\n        //transfer the tokens to beneficiary\r\n\r\n        IERC20(token).transfer(_beneficiary , _amount);\r\n\r\n        //emit the event\r\n        emit tokensWithdrawn(_beneficiary, _amount);\r\n    }\r\n\r\n    function getTokensToRelease(address _beneficiary)\r\n        private\r\n        view\r\n        returns (uint256)\r\n    {\r\n        require(\r\n            block.timestamp >=\r\n                cliff + beneficiaries[_beneficiary].vestingStartTime,\r\n            \"Tokens not released yet.\"\r\n        );\r\n\r\n        // release total vested tokens if complete vesting duration is passed.\r\n        if (\r\n            block.timestamp >=\r\n            beneficiaries[_beneficiary].vestingDurationExpiryTime\r\n        ) {\r\n            return beneficiaries[_beneficiary].fullyVestedAmount;\r\n        } else {\r\n            // release partial vested tokens based on vesting duration passed.\r\n            return\r\n                (beneficiaries[_beneficiary].fullyVestedAmount *\r\n                    (block.timestamp -\r\n                        beneficiaries[_beneficiary].vestingcliffExpiryTime)) /\r\n                duration;\r\n        }\r\n    }\r\n\r\n    function getTokensReleased(address _beneficiary)\r\n        public\r\n        isRevoked(_beneficiary)\r\n        onlyOwner\r\n        onlyBeneficiary(_beneficiary)\r\n        view\r\n        returns (uint256)\r\n    {\r\n        return tokensWithdrawable[_beneficiary];\r\n    }\r\n\r\n    function getTokensWithdrawn(address _beneficiary)\r\n        public\r\n        isRevoked(_beneficiary)\r\n        onlyOwner\r\n        onlyBeneficiary(_beneficiary)\r\n        view\r\n        returns (uint256)\r\n    {\r\n        return beneficiaries[_beneficiary].tokensWithdrawn;\r\n    }\r\n}\r\n",
  "sourcePath": "C:\\Users\\MAILE\\Desktop\\Practiceprojects\\VestingContract\\contracts\\Vesting.sol",
  "compiler": {
    "name": "solc",
    "version": "0.8.4+commit.c7e474f2.Emscripten.clang"
  },
  "schemaVersion": "3.4.7",
  "updatedAt": "2022-07-06T08:34:18.180Z",
  "networkType": "ethereum",
  "devdoc": {
    "kind": "dev",
    "methods": {
      "owner()": {
        "details": "Returns the address of the current owner."
      },
      "renounceOwnership()": {
        "details": "Leaves the contract without owner. It will not be possible to call `onlyOwner` functions anymore. Can only be called by the current owner. NOTE: Renouncing ownership will leave the contract without an owner, thereby removing any functionality that is only available to the owner."
      },
      "transferOwnership(address)": {
        "details": "Transfers ownership of the contract to a new account (`newOwner`). Can only be called by the current owner."
      }
    },
    "version": 1
  },
  "userdoc": {
    "kind": "user",
    "methods": {},
    "version": 1
  }
}